{
  "_format": "hh3-artifact-1",
  "contractName": "SolisRegistry",
  "sourceName": "contracts/SolisRegistry.sol",
  "abi": [
    {
      "inputs": [
        {
          "internalType": "address",
          "name": "initialOwner",
          "type": "address"
        }
      ],
      "stateMutability": "nonpayable",
      "type": "constructor"
    },
    {
      "inputs": [
        {
          "internalType": "address",
          "name": "escrow",
          "type": "address"
        }
      ],
      "name": "EscrowAlreadyRegistered",
      "type": "error"
    },
    {
      "inputs": [
        {
          "internalType": "address",
          "name": "escrow",
          "type": "address"
        }
      ],
      "name": "InvalidEscrowAddress",
      "type": "error"
    },
    {
      "inputs": [
        {
          "internalType": "address",
          "name": "escrow",
          "type": "address"
        }
      ],
      "name": "InvalidEscrowMetadata",
      "type": "error"
    },
    {
      "inputs": [],
      "name": "InvalidSemver",
      "type": "error"
    },
    {
      "inputs": [],
      "name": "InvalidVersion",
      "type": "error"
    },
    {
      "inputs": [
        {
          "internalType": "address",
          "name": "owner",
          "type": "address"
        }
      ],
      "name": "OwnableInvalidOwner",
      "type": "error"
    },
    {
      "inputs": [
        {
          "internalType": "address",
          "name": "account",
          "type": "address"
        }
      ],
      "name": "OwnableUnauthorizedAccount",
      "type": "error"
    },
    {
      "inputs": [
        {
          "internalType": "uint256",
          "name": "version",
          "type": "uint256"
        }
      ],
      "name": "VersionAlreadyRegistered",
      "type": "error"
    },
    {
      "inputs": [
        {
          "internalType": "uint256",
          "name": "version",
          "type": "uint256"
        }
      ],
      "name": "VersionNotActive",
      "type": "error"
    },
    {
      "inputs": [
        {
          "internalType": "uint256",
          "name": "version",
          "type": "uint256"
        }
      ],
      "name": "VersionNotRegistered",
      "type": "error"
    },
    {
      "anonymous": false,
      "inputs": [
        {
          "indexed": true,
          "internalType": "uint256",
          "name": "oldVersion",
          "type": "uint256"
        },
        {
          "indexed": true,
          "internalType": "uint256",
          "name": "newVersion",
          "type": "uint256"
        },
        {
          "indexed": true,
          "internalType": "address",
          "name": "escrow",
          "type": "address"
        }
      ],
      "name": "LatestVersionUpdated",
      "type": "event"
    },
    {
      "anonymous": false,
      "inputs": [
        {
          "indexed": true,
          "internalType": "address",
          "name": "previousOwner",
          "type": "address"
        },
        {
          "indexed": true,
          "internalType": "address",
          "name": "newOwner",
          "type": "address"
        }
      ],
      "name": "OwnershipTransferred",
      "type": "event"
    },
    {
      "anonymous": false,
      "inputs": [
        {
          "indexed": true,
          "internalType": "uint256",
          "name": "version",
          "type": "uint256"
        },
        {
          "indexed": true,
          "internalType": "address",
          "name": "escrow",
          "type": "address"
        }
      ],
      "name": "VersionDeprecated",
      "type": "event"
    },
    {
      "anonymous": false,
      "inputs": [
        {
          "indexed": true,
          "internalType": "uint256",
          "name": "version",
          "type": "uint256"
        },
        {
          "indexed": true,
          "internalType": "address",
          "name": "escrow",
          "type": "address"
        }
      ],
      "name": "VersionReactivated",
      "type": "event"
    },
    {
      "anonymous": false,
      "inputs": [
        {
          "indexed": true,
          "internalType": "uint256",
          "name": "version",
          "type": "uint256"
        },
        {
          "indexed": true,
          "internalType": "address",
          "name": "escrow",
          "type": "address"
        },
        {
          "indexed": false,
          "internalType": "string",
          "name": "semver",
          "type": "string"
        }
      ],
      "name": "VersionRegistered",
      "type": "event"
    },
    {
      "inputs": [
        {
          "internalType": "uint256",
          "name": "version",
          "type": "uint256"
        }
      ],
      "name": "deprecateVersion",
      "outputs": [],
      "stateMutability": "nonpayable",
      "type": "function"
    },
    {
      "inputs": [
        {
          "internalType": "address",
          "name": "",
          "type": "address"
        }
      ],
      "name": "escrowVersion",
      "outputs": [
        {
          "internalType": "uint256",
          "name": "",
          "type": "uint256"
        }
      ],
      "stateMutability": "view",
      "type": "function"
    },
    {
      "inputs": [
        {
          "internalType": "uint256",
          "name": "version",
          "type": "uint256"
        }
      ],
      "name": "getEscrow",
      "outputs": [
        {
          "internalType": "address",
          "name": "",
          "type": "address"
        }
      ],
      "stateMutability": "view",
      "type": "function"
    },
    {
      "inputs": [],
      "name": "getLatestEscrow",
      "outputs": [
        {
          "internalType": "address",
          "name": "",
          "type": "address"
        }
      ],
      "stateMutability": "view",
      "type": "function"
    },
    {
      "inputs": [
        {
          "internalType": "address",
          "name": "escrow",
          "type": "address"
        }
      ],
      "name": "isRegisteredEscrow",
      "outputs": [
        {
          "internalType": "bool",
          "name": "",
          "type": "bool"
        }
      ],
      "stateMutability": "view",
      "type": "function"
    },
    {
      "inputs": [],
      "name": "latestVersion",
      "outputs": [
        {
          "internalType": "uint256",
          "name": "",
          "type": "uint256"
        }
      ],
      "stateMutability": "view",
      "type": "function"
    },
    {
      "inputs": [],
      "name": "owner",
      "outputs": [
        {
          "internalType": "address",
          "name": "",
          "type": "address"
        }
      ],
      "stateMutability": "view",
      "type": "function"
    },
    {
      "inputs": [
        {
          "internalType": "uint256",
          "name": "version",
          "type": "uint256"
        }
      ],
      "name": "reactivateVersion",
      "outputs": [],
      "stateMutability": "nonpayable",
      "type": "function"
    },
    {
      "inputs": [
        {
          "internalType": "uint256",
          "name": "version",
          "type": "uint256"
        },
        {
          "internalType": "address",
          "name": "escrow",
          "type": "address"
        },
        {
          "internalType": "string",
          "name": "semver",
          "type": "string"
        }
      ],
      "name": "registerVersion",
      "outputs": [],
      "stateMutability": "nonpayable",
      "type": "function"
    },
    {
      "inputs": [],
      "name": "renounceOwnership",
      "outputs": [],
      "stateMutability": "nonpayable",
      "type": "function"
    },
    {
      "inputs": [
        {
          "internalType": "uint256",
          "name": "version",
          "type": "uint256"
        }
      ],
      "name": "setLatestVersion",
      "outputs": [],
      "stateMutability": "nonpayable",
      "type": "function"
    },
    {
      "inputs": [
        {
          "internalType": "address",
          "name": "newOwner",
          "type": "address"
        }
      ],
      "name": "transferOwnership",
      "outputs": [],
      "stateMutability": "nonpayable",
      "type": "function"
    },
    {
      "inputs": [
        {
          "internalType": "uint256",
          "name": "",
          "type": "uint256"
        }
      ],
      "name": "versions",
      "outputs": [
        {
          "internalType": "uint256",
          "name": "version",
          "type": "uint256"
        },
        {
          "internalType": "address",
          "name": "escrow",
          "type": "address"
        },
        {
          "internalType": "string",
          "name": "semver",
          "type": "string"
        },
        {
          "internalType": "bool",
          "name": "active",
          "type": "bool"
        },
        {
          "internalType": "bool",
          "name": "deprecated",
          "type": "bool"
        },
        {
          "internalType": "uint64",
          "name": "registeredAt",
          "type": "uint64"
        }
      ],
      "stateMutability": "view",
      "type": "function"
    }
  ],
  "bytecode": "0x60803460b857601f610ef838819003918201601f19168301916001600160401b0383118484101760bc5780849260209460405283398101031260b857516001600160a01b0381169081900360b857801560a5575f80546001600160a01b031981168317825560405192916001600160a01b03909116907f8be0079c531659141344cd1fd0a4f28419497f9722a3daafe3b4186f6b6457e09080a3610e2790816100d18239f35b631e4fbdf760e01b5f525f60045260245ffd5b5f80fd5b634e487b7160e01b5f52604160045260245ffdfe6080806040526004361015610012575f80fd5b5f3560e01c908163124010d814610c6d57508063402a7a0d14610c42578063564fcae114610b90578063715018a614610b2c5780637d19e59614610af657806387aee00e146109b25780638da5cb5b1461098d5780638e84e2b2146109255780639e86e88214610882578063c07f47d414610865578063dc508c9f1461082b578063e1d4a2e5146101585763f2fde38b146100ab575f80fd5b34610154576020366003190112610154576001600160a01b036100cc610ca1565b6100d4610d8c565b168015610128576001600160a01b035f548273ffffffffffffffffffffffffffffffffffffffff198216175f55167f8be0079c531659141344cd1fd0a4f28419497f9722a3daafe3b4186f6b6457e05f80a3005b7f1e4fbdf7000000000000000000000000000000000000000000000000000000005f525f60045260245ffd5b5f80fd5b3461015457606036600319011261015457600435602435906001600160a01b03821691828103610154576044359067ffffffffffffffff821161015457366023830112156101545781600401359067ffffffffffffffff82116101545760248301926024833692010111610154576101ce610d8c565b831561080357835f5260016020526001600160a01b03600160405f200154166107d75784159081156107cd575b506107a157835f52600260205260405f205461077557801561074d576040517f0f9be51c000000000000000000000000000000000000000000000000000000008152602081600481885afa5f9181610719575b506102665784630747ea8d60e41b5f5260045260245ffd5b8303610646576040517f7b103999000000000000000000000000000000000000000000000000000000008152602081600481885afa5f91816106d5575b506102bb5784630747ea8d60e41b5f5260045260245ffd5b6001600160a01b0330911603610646576040517f705cbbae0000000000000000000000000000000000000000000000000000000081525f81600481885afa5f9181610659575b506103195784630747ea8d60e41b5f5260045260245ffd5b6020815191012061032b368385610d56565b6020815191012003610646576040519060c0820182811067ffffffffffffffff82111761063257604052838252602082019285845261036b368383610d56565b9360408401948552606084019060018252608085015f815260a086019167ffffffffffffffff42168352885f52600160205260405f20965187556001600160a01b036001880191511673ffffffffffffffffffffffffffffffffffffffff198254161790556002860196519586519767ffffffffffffffff8911610632578a988a986103f78354610cb7565b601f81116105c2575b50602090601f83116001146105195792826003937f71e4b7ebfc47c78b957e1d452ae068667c29aacb4119ea6217923e46fe8cd54f9b9a98969360409a98965f9261050e575b50508160011b915f1990861b1c19161790555b019251151560ff8019855416911617835551151561ff0083549160081b169061ff0019161782555169ffffffffffffffff000082549160101b169069ffffffffffffffff00001916179055855f52600260205284825f205582825193849260208452816020850152848401375f828201840152601f01601f19168101030190a3600354156104e357005b806003555f7fc14a1b2e0a99ef402b8b767f10da61dd253f6c66cf282668664a59016690681f8180a4005b015190505f80610446565b90601f19831691845f52815f20925f5b81811061058f5750937f71e4b7ebfc47c78b957e1d452ae068667c29aacb4119ea6217923e46fe8cd54f9b9a98969360409a9896936001938360039810610578575b505050811b019055610459565b01515f1983881b60f8161c191690555f808061056b565b9496989a9c50919496989a9c50916020600181928786015181550195019301918d9b99979593918f9d9b99979593610529565b828111156104005791939597995091809496989a505f5260205f20601f840160051c906020851061062a575b9181601f8f9d9b999795938f9d9b99979501920160051c03905f5b828110610617575050610400565b5f828201558f9d508e9c50600101610609565b5f91506105ee565b634e487b7160e01b5f52604160045260245ffd5b83630747ea8d60e41b5f5260045260245ffd5b9091503d805f833e61066b8183610cef565b8101906020818303126101545780519067ffffffffffffffff8211610154570181601f82011215610154578051906106a282610d3a565b926106b06040519485610cef565b8284526020838301011161015457815f9260208093018386015e830101529086610301565b9091506020813d602011610711575b816106f160209383610cef565b8101031261015457516001600160a01b03811681036101545790866102a3565b3d91506106e4565b9091506020813d602011610745575b8161073560209383610cef565b810103126101545751908661024e565b3d9150610728565b7f5e6a8a05000000000000000000000000000000000000000000000000000000005f5260045ffd5b837f3c4e4d7d000000000000000000000000000000000000000000000000000000005f5260045260245ffd5b837ff672ee14000000000000000000000000000000000000000000000000000000005f5260045260245ffd5b90503b15856101fb565b837f72a9da21000000000000000000000000000000000000000000000000000000005f5260045260245ffd5b7fa9146eeb000000000000000000000000000000000000000000000000000000005f5260045ffd5b34610154576020366003190112610154576001600160a01b0361084c610ca1565b165f526002602052602060405f20541515604051908152f35b34610154575f366003190112610154576020600354604051908152f35b346101545760203660031901126101545760043561089e610d8c565b6001600160a01b0360016108b183610dcb565b6003818101805461ffff19166101001790555484146108f5575b015416907fb7397548b89e42850c524a1a1c382c75e015a706032ea669dabb57bdfb743a615f80a3005b5f6003555f80857fc14a1b2e0a99ef402b8b767f10da61dd253f6c66cf282668664a59016690681f8280a46108cb565b3461015457602036600319011261015457600435610941610d8c565b6001600160a01b03600161095483610dcb565b60038101805461ffff191683179055015416907fe1458499e8ff974d0c85ce664c66b6d4566426980fc56de392faaa9ecab5d8515f80a3005b34610154575f3660031901126101545760206001600160a01b035f5416604051908152f35b34610154576020366003190112610154576004355f52600160205260405f2080546001600160a01b036001830154169060028301604051935f8254926109f784610cb7565b9081885260208801946001811690815f14610ad25750600114610a8e575b505094600367ffffffffffffffff92610a338360e098990384610cef565b0154906040519687958652602086015260c060408601525180938160c08701528686015e5f84840186015260ff81811615156060860152600882901c161515608085015260101c1660a0830152601f01601f19168101030190f35b5f908152602081209092505b818310610ab85750508501602001600367ffffffffffffffff610a15565b6001816020929493945483858c0101520191019190610a9a565b60ff191686525050151560051b86016020019050600367ffffffffffffffff610a15565b34610154576020366003190112610154576004355f52600160205260206001600160a01b03600160405f20015416604051908152f35b34610154575f36600319011261015457610b44610d8c565b5f6001600160a01b03815473ffffffffffffffffffffffffffffffffffffffff1981168355167f8be0079c531659141344cd1fd0a4f28419497f9722a3daafe3b4186f6b6457e08280a3005b3461015457602036600319011261015457600435610bac610d8c565b610bb581610dcb565b90600382015460ff811615908115610c34575b50610c09576001600160a01b0360016003549383600355015416917fc14a1b2e0a99ef402b8b767f10da61dd253f6c66cf282668664a59016690681f5f80a4005b7f51f5846d000000000000000000000000000000000000000000000000000000005f5260045260245ffd5b60ff915060081c1683610bc8565b34610154575f366003190112610154576020610c5c610d11565b6001600160a01b0360405191168152f35b34610154576020366003190112610154576020906001600160a01b03610c91610ca1565b165f526002825260405f20548152f35b600435906001600160a01b038216820361015457565b90600182811c92168015610ce5575b6020831014610cd157565b634e487b7160e01b5f52602260045260245ffd5b91607f1691610cc6565b90601f8019910116810190811067ffffffffffffffff82111761063257604052565b6003548015610d35575f5260016020526001600160a01b03600160405f2001541690565b505f90565b67ffffffffffffffff811161063257601f01601f191660200190565b929192610d6282610d3a565b91610d706040519384610cef565b829481845281830111610154578281602093845f960137010152565b6001600160a01b035f54163303610d9f57565b7f118cdaa7000000000000000000000000000000000000000000000000000000005f523360045260245ffd5b90815f52600160205260405f20916001600160a01b0360018401541615610def5750565b7f7afced02000000000000000000000000000000000000000000000000000000005f5260045260245ffdfea164736f6c6343000823000a",
  "linkReferences": {},
  "deployedLinkReferences": {},
  "immutableReferences": {},
  "inputSourceName": "project/contracts/SolisRegistry.sol",
  "buildInfoId": "solc-0_8_35-98ece774a500dd0518925cb9e472ba838f2acfc0"
}